:100000000C9462000C948A000C948A000C94D6051F
:100010000C94D8060C94B4060C948A000C94FC063C
:100020000C948A000C948A000C948A000C948A0028
:100030000C948A000C948A000C948A000C948A0018
:100040000C9434050C948A000C94A4050C947E0541
:100050000C948A000C948A000C948A000C948A00F8
:100060000C948A000C948A000000000023002600F3
:10007000290000000000240027002A0000000000E2
:10008000250028002B0004040404040404040202D4
:100090000202020203030303030301020408102007
:1000A0004080010204081020010204081020000012
:1000B0000008000201000003040700000000000027
:1000C0000000050911241FBECFEFD8E0DEBFCDBF71
:1000D00011E0A0E0B1E0E6E0F3E102C005900D928E
:1000E000A635B107D9F722E0A6E5B1E001C01D921F
:1000F000AF3FB207E1F710E0C2E6D0E004C02197BD
:10010000FE010E947609C136D107C9F70E9488070F
:100110000C9481090C940000833081F028F4813024
:1001200099F08230A1F008958730A9F08830B9F0B5
:100130008430D1F4809180008F7D03C08091800055
:100140008F7780938000089584B58F7702C084B53F
:100150008F7D84BD08958091B0008F7703C080911A
:10016000B0008F7D8093B00008951F93CF93DF93ED
:10017000282F30E0F901E255FF4F8491F901E6564E
:10018000FF4FD491F901EA57FF4FC491CC23C1F03E
:10019000162F81110E948C00EC2FF0E0EE0FFF1F54
:1001A000E458FF4FA591B4919FB7F894111104C082
:1001B0008C91D095D82302C0EC91DE2BDC939FBFAD
:1001C000DF91CF911F910895CF93DF9390E0FC01D1
:1001D000E656FF4F2491FC01EA57FF4F8491882394
:1001E00061F190E0880F991FFC01EE58FF4FC59117
:1001F000D491FC01E458FF4FA591B491611109C05D
:100200009FB7F8948881209582238883EC912E23D0
:100210000BC0623061F49FB7F8948881322F30951B
:1002200083238883EC912E2B2C939FBF06C08FB71E
:10023000F894E8812E2B28838FBFDF91CF9108950A
:100240001F93CF93DF93182FEB0161E00E94E4002E
:10025000209711F460E004C0CF3FD10539F461E08C
:10026000812FDF91CF911F910C94B500E12FF0E029
:10027000E255FF4FE491E330F9F048F4E130B9F092
:10028000E230A1F584B5806284BDC8BD34C0E730DA
:10029000E9F0E83019F1E43049F58091800080629E
:1002A00080938000D0938B00C0938A0024C084B5D3
:1002B000806884BDC7BD1FC0809180008068809326
:1002C0008000D0938900C093880015C08091B00051
:1002D00080688093B000C093B3000DC08091B000DF
:1002E00080628093B000C093B40005C0C038D105CF
:1002F0000CF0B5CFAFCFDF91CF911F91089581E082
:1003000080935802089581E080935702089581E018
:100310008093560208950895CF92DF92EF92FF9254
:100320000F931F93CF93DF936C017A018B01C0E091
:10033000D0E0CE15DF0581F0D8016D918D01D60199
:10034000ED91FC910190F081E02DC6010995892B7A
:1003500011F02196EECF7E01C701DF91CF911F9161
:100360000F91FF90EF90DF90CF900895089580E077
:1003700090E00895FC01538D448D252F30E0842FAB
:1003800090E0821B930B541710F0CF9608950197BD
:100390000895FC01918D828D981761F0828DDF01A7
:1003A000A80FB11D5D968C91928D9F5F9F73928F68
:1003B00090E008958FEF9FEF0895FC01918D828D5D
:1003C000981731F0828DE80FF11D858D90E008952A
:1003D0008FEF9FEF0895FC01918D228D892F90E082
:1003E000805C9F4F821B91098F739927089582E645
:1003F00092E00E94EB0121E0892B09F420E0822F9A
:100400000895FC01848DDF01A80FB11DA35ABF4FD1
:100410002C91848D90E001968F739927848FA68903
:10042000B7892C93A089B1898C91837080648C9357
:10043000938D848D981306C00288F389E02D808106
:100440008F7D80830895EF92FF920F931F93CF9338
:10045000DF93EC0181E0888F9B8D8C8D981305C014
:10046000E889F989808185FD26C0F62E0B8D10E084
:100470000F5F1F4F0F731127E02E8C8DE8120CC0F9
:100480000FB607FCFACFE889F989808185FFF5CF9F
:10049000CE010E940102F1CF8B8DFE01E80FF11D0C
:1004A000E35AFF4FF0829FB7F8940B8FEA89FB89DC
:1004B000808180620AC09FB7F894EE89FF896083CB
:1004C000E889F98980818370806480839FBF81E09F
:1004D00090E0DF91CF911F910F91FF90EF900895E1
:1004E000CF93DF93EC01888D8823C9F0EA89FB89DB
:1004F000808185FD05C0A889B9898C9186FD0FC0D2
:100500000FB607FCF5CF808185FFF2CFA889B989A6
:100510008C9185FFEDCFCE010E940102E7CFDF91E4
:10052000CF91089580E090E0892B29F00E94F70197
:1005300081110C94000008950F931F93CF93DF93C4
:10054000EC018A8D8BA329A530E0F901E255FF4F1C
:100550008491F901E656FF4F0491F901EA57FF4FE4
:100560001491112379F081110E948C00E12FF0E0A9
:10057000EE0FFF1FE859FF4FA591B491EC91E023D6
:1005800081E009F480E081708A8FDF91CF911F9123
:100590000F9108959F92AF92BF92CF92DF92EF9208
:1005A000FF920F931F93CF93DF93982EB12CAA2421
:1005B000A39402E310E09AECE92E92E0F92E26E4EF
:1005C000C22ED12C8091B001B81608F048C0EB2D96
:1005D000F0E0EE0FFF1FE05AFE4FC081D1818BA5E6
:1005E00089113BC02097C9F118A21DA21EA28FA19C
:1005F0008823B9F0CE010E949C028A8D811111C01E
:100600008E8D882371F0D982C882DB82CA82FD86F2
:10061000EC86AB861C82EC89FD89309711F088A5A9
:1006200009958CA18823C9F0CE010E949C028A8D75
:10063000811113C08D8D882381F01CA2AFA2198374
:1006400008831B830A83FD86EC86AB861C82E889BF
:10065000F989309711F088A50995B394B3CFDF914C
:10066000CF911F910F91FF90EF90DF90CF90BF90AF
:10067000AF909F900895DC0195961C929597969661
:100680001C92969717961C921E9216971A961C9279
:100690001A971B961C921B9711961C921E925C96A1
:1006A0008C915C97882349F01E96ED91FC911F97E1
:1006B000309719F098968C9109940895CF93DF9311
:1006C000D82FC0E08091B001C81790F4EC2FF0E073
:1006D000EE0FFF1FE05AFE4F80819181FC0123A5A0
:1006E0002D1304C0009711F00E943B03CF5FEACFA7
:1006F000DF91CF9108951F93CF93DF93EC01162FD5
:100700001F861E861B8A1A8A198A188A1D8A1C8AC5
:100710001F8A1E8A198E188E80910001E82FF0E042
:10072000EE0FFF1FE059FE4FD183C0838D838F5F93
:100730008093000169A762E0812F0E94E4001830D5
:1007400038F01E3040F0163148F4ECE6F0E008C016
:10075000EDE6F0E005C0EBE6F0E002C0E0E0F0E03E
:100760002081183068F481E090E0A0E0B0E0012E34
:1007700004C0880F991FAA1FBB1F0A94D2F715C087
:10078000812F90E0AC011E3018F44850510902C08E
:100790004E50510981E090E0A0E0B0E004C0880F25
:1007A000991FAA1FBB1F4A95D2F7822B80833BB3A8
:1007B000183058F021E01E3008F420E091E0892F35
:1007C00001C0880F2A95EAF701C084E0832B8BBB18
:1007D00030916800183058F021E01E3008F420E015
:1007E00091E0892F01C0880F2A95EAF701C084E0C3
:1007F000832B8093680078948AA5813039F020F0AB
:10080000823029F489B103C083B101C086B18091DF
:10081000B001E82FF0E0EE0FFF1FE05AFE4FD1834A
:10082000C08388A78F5F8093B00181E08A8F1DA26B
:100830001F8E1EA21FA21C8E1D8E1E8E8D818BA749
:10084000DF91CF911F91089580915701882381F006
:1008500080915601882311F060E001C061E08DE0D5
:100860000E94B5009091560181E08927809356013E
:100870000895CF93DF93C1E5D2E0688170E08AE00C
:100880000E942001698170E085E00E9420016A8158
:1008900070E089E0DF91CF910C942001009769F01E
:1008A000FC0101900020E9F73197AF01481B590B7B
:1008B000BC0182E692E00C948C0180E090E0089507
:1008C0008F929F92AF92BF920F931F93CF93DF931C
:1008D000CDB7DEB7A1970FB6F894DEBF0FBECDBF80
:1008E00019A2423008F44AE08E010F5D1F4F842E9A
:1008F000912CA12CB12CA50194010E944809E62F4E
:10090000B901CA0101501109EA3014F4E05D01C0D7
:10091000E95CD801EC93232B242B252B61F7C8012C
:100920000E944E04A1960FB6F894DEBF0FBECDBF55
:10093000DF91CF911F910F91BF90AF909F908F90BB
:1009400008950E947C09CF93DF93EB010E94320946
:100950008883CE01DF91CF910895FF920F931F936B
:10096000CF93DF938C01EB01F8800E943209F816D7
:1009700021F06F2DC8010E943A09CE01DF91CF917D
:100980001F910F91FF90089564E572E080E090E080
:100990000E94AD0461E572E081E090E00E94AD0448
:1009A00062E572E082E090E00E94AD0463E572E0EF
:1009B00083E090E00C94AD04CF93E0915402E330D7
:1009C00078F4F0E0EF5AFD4F8081883018F08550C0
:1009D000808301C0108281E0809355020E94C4048C
:1009E000C0915402C33081F4109254020E94DC047E
:1009F00081E0809354020E94DC0482E080935402E0
:100A00000E94DC04C093540210925702CF910895C3
:100A1000CF93E0915402E33078F4F0E0EF5AFD4FC9
:100A20008081883F10F48B5F01C08FEF808381E06D
:100A3000809355020E94C404C0915402C33081F4D3
:100A4000109254020E94080581E0809354020E9493
:100A5000080582E0809354020E940805C093540266
:100A600010925802CF9108951F920F920FB60F92D5
:100A700011242F933F938F939F93AF93BF938091B4
:100A80005E0290915F02A0916002B091610230918C
:100A90005D0223E0230F2D3720F40196A11DB11D27
:100AA00005C026E8230F0296A11DB11D20935D020B
:100AB00080935E0290935F02A0936002B093610204
:100AC0008091590290915A02A0915B02B0915C0210
:100AD0000196A11DB11D8093590290935A02A093D3
:100AE0005B02B0935C02BF91AF919F918F913F9158
:100AF0002F910F900FBE0F901F9018951F920F927D
:100B00000FB60F9211242F933F934F935F936F93E0
:100B10007F938F939F93AF93BF93EF93FF9382E65F
:100B200092E00E940102FF91EF91BF91AF919F91DE
:100B30008F917F916F915F914F913F912F910F9086
:100B40000FBE0F901F9018951F920F920FB60F9225
:100B500011242F938F939F93EF93FF93E091720251
:100B6000F09173028081E0917802F091790282FD28
:100B700012C0908180917B028F5F8F7320917C02E5
:100B8000821751F0E0917B02F0E0EE59FD4F958F16
:100B900080937B0201C08081FF91EF919F918F91A3
:100BA0002F910F900FBE0F901F9018951F920F92CC
:100BB0000FB60F9211246F927F928F929F92AF92F5
:100BC000BF92CF92DF92EF92FF920F931F932F93DA
:100BD0003F934F935F936F937F938F939F93AF93C5
:100BE000BF93CF93DF93EF93FF93612C04E610E064
:100BF0009EE5A92E93E0B92E7724739428E5E22E82
:100C000022E0F22E3CEBC32E32E0D32E4AEC842EAF
:100C100042E0942E8091B001681608F086C0E62D5F
:100C2000F0E0EE0FFF1FE05AFE4FC081D181209708
:100C300009F479C0CE010E949C028A8D811126C0E0
:100C40008BA1882309F46FC089A1882331F0E88D36
:100C5000F98D309711F088A509958DA1811108C0F3
:100C6000D982C882DB82CA829D868C867B861C8262
:100C70007CA2882339F0FF82EE827A86F986E886A4
:100C80007EA21DA28A8D882309F44DC08BA18111FB
:100C90004AC08AA1882331F0EE89FF89309711F08C
:100CA00088A509952EA1211105C08A819B814881C3
:100CB000598104C0888599854E815F81841B950B7D
:100CC0009FA78EA71F821E821A861B8619821882F2
:100CD0001CA28EA59FA50B978D349240F0F4211194
:100CE00013C08FA1811110C08F8D882351F01983FB
:100CF00008831B830A83BD86AC867B861C827DA20B
:100D000003C0CE010E943B038EA1882331F0EA8903
:100D1000FB89309711F088A509958FA181111FA239
:100D20008EA181111EA2639475CFFF91EF91DF9187
:100D3000CF91BF91AF919F918F917F916F915F9173
:100D40004F913F912F911F910F91FF90EF90DF9066
:100D5000CF90BF90AF909F908F907F906F900F90AB
:100D60000FBE0F901F9018951F920F920FB60F9203
:100D700011242F933F934F935F936F937F938F93A0
:100D80009F93AF93BF93EF93FF930E94D605FF917C
:100D9000EF91BF91AF919F918F917F916F915F91F3
:100DA0004F913F912F910F900FBE0F901F9018956C
:100DB0001F920F920FB60F9211242F933F934F93D0
:100DC0005F936F937F938F939F93AF93BF93EF93B3
:100DD000FF930E94D605FF91EF91BF91AF919F9134
:100DE0008F917F916F915F914F913F912F910F90D4
:100DF0000FBE0F901F9018951F920F920FB60F9273
:100E000011241F932F933F934F935F936F937F937F
:100E10008F939F93AF93BF93CF93DF93EF93FF9302
:100E2000209158013091590140915A0150915B0134
:100E300060915C0170915D0180915E0190915F0114
:100E4000A1E00E946A092093580130935901409310
:100E50005A0150935B0160935C0170935D01809334
:100E60005E0190935F0110E0809100011817E0F59A
:100E7000E12FF0E0EE0FFF1FE059FE4FC081D1815E
:100E8000209781F18B858823F1F0888199810097E3
:100E900019F001979983888388819981892B99F426
:100EA0008C81813029F48A819B819983888305C054
:100EB000811103C01B8619821882EC85FD8530974D
:100EC00011F08D8109958A85882361F08E819F813B
:100ED000009719F001979F838E838E819F81892BC4
:100EE00009F41A861F5FC0CFFF91EF91DF91CF9178
:100EF000BF91AF919F918F917F916F915F914F9132
:100F00003F912F911F910F900FBE0F901F9018953A
:100F1000789484B5826084BD84B5816084BD85B5D4
:100F2000826085BD85B5816085BD80916E008160E0
:100F300080936E0010928100809181008260809386
:100F40008100809181008160809381008091800088
:100F50008160809380008091B10084608093B100B3
:100F60008091B00081608093B00080917A008460AD
:100F700080937A0080917A00826080937A008091D9
:100F80007A00816080937A0080917A0080688093F3
:100F90007A001092C10061E08DE00E94E40062E0FE
:100FA00088E00E94E40062E087E00E94E40062E0E2
:100FB00086E00E94E400E0917202F0917302D2E0B8
:100FC000D083E0916E02F0916F021082E091700286
:100FD000F09171028FEC808310927A02E091760298
:100FE000F091770286E08083E0917402F0917502BF
:100FF000808180618083E0917402F091750280812C
:1010000088608083E0917402F0917502808180682D
:101010008083E0917402F091750280818F7D8083DE
:1010200084E191E00E944E0489E291E00E944E0426
:10103000D093B0008DE78093B3008091B1008560BC
:101040008093B100D093700083E492E09093730199
:1010500080937201C1E0C0934802D093000184EFF5
:1010600091E09093440280934302909346028093D0
:10107000450284E294E09093500280934F02C09323
:101080004E02C09347021092B00166E083E192E005
:101090000E947B0368E083EE91E00E947B0367E09F
:1010A00083EB91E00E947B038FE791E09093220213
:1010B00080932102C0932F0283E891E09093F20184
:1010C0008093F101C093FF0187E891E09093C20102
:1010D0008093C1019093B2018093B101C093CF017D
:1010E000C093010164E572E080E090E00E94A304F7
:1010F00061E572E081E090E00E94A30462E572E0A5
:1011000082E090E00E94A30463E572E083E090E057
:101110000E94A3040E9439048CE291E00E944E04D4
:1011200089E291E00E944E0480910101882371F0D0
:10113000789483B7817F83BF83B7816083BF83B790
:10114000816083BF889583B78E7F83BF809158026B
:1011500081110E9408058091570281110E94DC04D0
:1011600080915602882381F080915402833018F0D8
:101170001092540203C08F5F80935402C0935502B3
:101180000E94C40410925602809155028823D1F126
:10119000109255020E94C4040E94390482E391E037
:1011A0000E944E046091540270E080E090E04AE0BA
:1011B0000E9460048AE391E00E944E046091510213
:1011C00070E080E090E04AE00E94600482E491E0F8
:1011D0000E944E046091520270E080E090E04AE08C
:1011E0000E9460048CE491E00E944E0460915302DE
:1011F00070E080E090E04AE00E94600489E291E0C3
:101200000E944E040E9492028FCFE2E6F2E0138227
:10121000128288EE93E0A0E0B0E084839583A683F9
:10122000B78386E091E09183808385EC90E0958799
:10123000848784EC90E09787868780EC90E0918BA0
:10124000808B81EC90E0938B828B82EC90E0958B8D
:10125000848B86EC90E0978B868B118E128E138E8A
:10126000148E0895F999FECF92BD81BDF89A992701
:1012700080B50895262FF999FECF1FBA92BD81BD82
:1012800020BD0FB6F894FA9AF99A0FBE0196089508
:10129000A1E21A2EAA1BBB1BFD010DC0AA1FBB1F7A
:1012A000EE1FFF1FA217B307E407F50720F0A21BEC
:1012B000B30BE40BF50B661F771F881F991F1A9459
:1012C00069F760957095809590959B01AC01BD0183
:1012D000CF0108950024A7FD00942A0F301D401D62
:1012E000501D601D701D801D901D0895EE0FFF1F85
:1012F0000590F491E02D099481E090E0F8940C942D
:061300008109F894FFCF03
:1013060001010000000023028C01BA017002EB010A
:10131600C901DD0153657474696E672075702074A8
:1013260068696E67732E2E2E000D0A00446F6E6577
:101336002E004D6F6465203D200020526564203DDF
:10134600200020477265656E203D200020426C75A6
:0613560065203D200000AF
:00000001FF
